{
  "contractName": "Agent",
  "abi": [
    {
      "constant": true,
      "inputs": [
        {
          "name": "",
          "type": "uint256"
        }
      ],
      "name": "doctorList",
      "outputs": [
        {
          "name": "",
          "type": "address"
        }
      ],
      "payable": false,
      "stateMutability": "view",
      "type": "function"
    },
    {
      "constant": true,
      "inputs": [
        {
          "name": "",
          "type": "uint256"
        }
      ],
      "name": "patientList",
      "outputs": [
        {
          "name": "",
          "type": "address"
        }
      ],
      "payable": false,
      "stateMutability": "view",
      "type": "function"
    },
    {
      "constant": false,
      "inputs": [
        {
          "name": "_name",
          "type": "string"
        },
        {
          "name": "_age",
          "type": "uint256"
        },
        {
          "name": "_num",
          "type": "string"
        },
        {
          "name": "_bg",
          "type": "string"
        },
        {
          "name": "_hash",
          "type": "string"
        },
        {
          "name": "addr",
          "type": "address"
        }
      ],
      "name": "add_patient",
      "outputs": [
        {
          "name": "",
          "type": "string"
        }
      ],
      "payable": false,
      "stateMutability": "nonpayable",
      "type": "function"
    },
    {
      "constant": false,
      "inputs": [
        {
          "name": "_name",
          "type": "string"
        },
        {
          "name": "_age",
          "type": "uint256"
        },
        {
          "name": "_num",
          "type": "string"
        },
        {
          "name": "_bg",
          "type": "string"
        },
        {
          "name": "addr",
          "type": "address"
        }
      ],
      "name": "add_doctor",
      "outputs": [
        {
          "name": "",
          "type": "string"
        }
      ],
      "payable": false,
      "stateMutability": "nonpayable",
      "type": "function"
    },
    {
      "constant": false,
      "inputs": [
        {
          "name": "_name",
          "type": "string"
        },
        {
          "name": "_age",
          "type": "uint256"
        },
        {
          "name": "_designation",
          "type": "uint256"
        },
        {
          "name": "_num",
          "type": "string"
        },
        {
          "name": "_bg",
          "type": "string"
        },
        {
          "name": "_hash",
          "type": "string"
        }
      ],
      "name": "add_agent",
      "outputs": [
        {
          "name": "",
          "type": "string"
        }
      ],
      "payable": false,
      "stateMutability": "nonpayable",
      "type": "function"
    },
    {
      "constant": true,
      "inputs": [
        {
          "name": "addr",
          "type": "address"
        }
      ],
      "name": "get_doctor",
      "outputs": [
        {
          "name": "",
          "type": "string"
        },
        {
          "name": "",
          "type": "uint256"
        },
        {
          "name": "",
          "type": "string"
        },
        {
          "name": "",
          "type": "string"
        }
      ],
      "payable": false,
      "stateMutability": "view",
      "type": "function"
    },
    {
      "constant": true,
      "inputs": [
        {
          "name": "addr",
          "type": "address"
        }
      ],
      "name": "get_patient",
      "outputs": [
        {
          "name": "",
          "type": "string"
        },
        {
          "name": "",
          "type": "uint256"
        },
        {
          "name": "",
          "type": "uint256[]"
        },
        {
          "name": "",
          "type": "address"
        },
        {
          "name": "",
          "type": "string"
        }
      ],
      "payable": false,
      "stateMutability": "view",
      "type": "function"
    },
    {
      "constant": false,
      "inputs": [
        {
          "name": "addr",
          "type": "address"
        }
      ],
      "name": "permit_access",
      "outputs": [],
      "payable": true,
      "stateMutability": "payable",
      "type": "function"
    },
    {
      "constant": false,
      "inputs": [
        {
          "name": "paddr",
          "type": "address"
        },
        {
          "name": "_diagnosis",
          "type": "uint256"
        },
        {
          "name": "_hash",
          "type": "string"
        }
      ],
      "name": "daignosis_submit_action",
      "outputs": [],
      "payable": false,
      "stateMutability": "nonpayable",
      "type": "function"
    },
    {
      "constant": true,
      "inputs": [
        {
          "name": "addr",
          "type": "address"
        }
      ],
      "name": "get_accessed_patientlist_for_doctor",
      "outputs": [
        {
          "name": "",
          "type": "address[]"
        }
      ],
      "payable": false,
      "stateMutability": "view",
      "type": "function"
    },
    {
      "constant": true,
      "inputs": [
        {
          "name": "addr",
          "type": "address"
        }
      ],
      "name": "get_accessed_doctorlist_for_patient",
      "outputs": [
        {
          "name": "",
          "type": "address[]"
        }
      ],
      "payable": false,
      "stateMutability": "view",
      "type": "function"
    },
    {
      "constant": true,
      "inputs": [
        {
          "name": "patientId",
          "type": "address"
        }
      ],
      "name": "getBasicPatientInfo",
      "outputs": [
        {
          "name": "patientName",
          "type": "string"
        },
        {
          "name": "patientAddress",
          "type": "string"
        },
        {
          "name": "patientBloodgroup",
          "type": "string"
        },
        {
          "name": "patientPhoneNo",
          "type": "string"
        }
      ],
      "payable": false,
      "stateMutability": "view",
      "type": "function"
    },
    {
      "constant": false,
      "inputs": [
        {
          "name": "paddr",
          "type": "address"
        },
        {
          "name": "daddr",
          "type": "address"
        }
      ],
      "name": "remove_patient",
      "outputs": [],
      "payable": false,
      "stateMutability": "nonpayable",
      "type": "function"
    },
    {
      "constant": false,
      "inputs": [
        {
          "name": "daddr",
          "type": "address"
        }
      ],
      "name": "revoke_access",
      "outputs": [],
      "payable": true,
      "stateMutability": "payable",
      "type": "function"
    },
    {
      "constant": true,
      "inputs": [
        {
          "name": "paddr",
          "type": "address"
        }
      ],
      "name": "get_hash",
      "outputs": [
        {
          "name": "",
          "type": "string"
        }
      ],
      "payable": false,
      "stateMutability": "view",
      "type": "function"
    },
    {
      "constant": false,
      "inputs": [
        {
          "name": "doc_id",
          "type": "address"
        },
        {
          "name": "_name",
          "type": "string"
        },
        {
          "name": "_phoneNumber",
          "type": "string"
        },
        {
          "name": "_address",
          "type": "string"
        }
      ],
      "name": "updateDoctorDetails",
      "outputs": [],
      "payable": false,
      "stateMutability": "nonpayable",
      "type": "function"
    },
    {
      "constant": true,
      "inputs": [],
      "name": "get_doctor_list",
      "outputs": [
        {
          "name": "",
          "type": "address[]"
        }
      ],
      "payable": false,
      "stateMutability": "view",
      "type": "function"
    },
    {
      "constant": true,
      "inputs": [],
      "name": "get_patient_list",
      "outputs": [
        {
          "name": "",
          "type": "address[]"
        }
      ],
      "payable": false,
      "stateMutability": "view",
      "type": "function"
    }
  ],
  "bytecode": "0x608060405234801561001057600080fd5b5061355d806100206000396000f3fe6080604052600436106100f5576000357c0100000000000000000000000000000000000000000000000000000000900480627ee3ce146100fa5780630362fe9b146101a0578063127ca4b4146102115780631a6a2d9b1461028c57806327b1dcee1461049a57806330c6d471146104de5780634042d2d4146105d057806356c98c48146107885780637e1519ce14610931578063babb1d41146109fb578063bcffb7ca14610a76578063c32f7dd214610aba578063c39e963514610cd0578063ce10449614610d3c578063dd44176b14611056578063e81ac054146110fc578063f422439214611168578063fae1347d14611401575b600080fd5b34801561010657600080fd5b506101496004803603602081101561011d57600080fd5b81019080803573ffffffffffffffffffffffffffffffffffffffff169060200190929190505050611731565b6040518080602001828103825283818151815260200191508051906020019060200280838360005b8381101561018c578082015181840152602081019050610171565b505050509050019250505060405180910390f35b3480156101ac57600080fd5b5061020f600480360360408110156101c357600080fd5b81019080803573ffffffffffffffffffffffffffffffffffffffff169060200190929190803573ffffffffffffffffffffffffffffffffffffffff169060200190929190505050611807565b005b34801561021d57600080fd5b5061024a6004803603602081101561023457600080fd5b81019080803590602001909291905050506118a3565b604051808273ffffffffffffffffffffffffffffffffffffffff1673ffffffffffffffffffffffffffffffffffffffff16815260200191505060405180910390f35b34801561029857600080fd5b506102db600480360360208110156102af57600080fd5b81019080803573ffffffffffffffffffffffffffffffffffffffff1690602001909291905050506118e1565b6040518080602001806020018060200180602001858103855289818151815260200191508051906020019080838360005b8381101561032757808201518184015260208101905061030c565b50505050905090810190601f1680156103545780820380516001836020036101000a031916815260200191505b50858103845288818151815260200191508051906020019080838360005b8381101561038d578082015181840152602081019050610372565b50505050905090810190601f1680156103ba5780820380516001836020036101000a031916815260200191505b50858103835287818151815260200191508051906020019080838360005b838110156103f35780820151818401526020810190506103d8565b50505050905090810190601f1680156104205780820380516001836020036101000a031916815260200191505b50858103825286818151815260200191508051906020019080838360005b8381101561045957808201518184015260208101905061043e565b50505050905090810190601f1680156104865780820380516001836020036101000a031916815260200191505b509850505050505050505060405180910390f35b6104dc600480360360208110156104b057600080fd5b81019080803573ffffffffffffffffffffffffffffffffffffffff169060200190929190505050611cbc565b005b3480156104ea57600080fd5b506105ce6004803603606081101561050157600080fd5b81019080803573ffffffffffffffffffffffffffffffffffffffff169060200190929190803590602001909291908035906020019064010000000081111561054857600080fd5b82018360208201111561055a57600080fd5b8035906020019184600183028401116401000000008311171561057c57600080fd5b91908080601f016020809104026020016040519081016040528093929190818152602001838380828437600081840152601f19601f820116905080830192505050505050509192919290505050611d28565b005b3480156105dc57600080fd5b5061061f600480360360208110156105f357600080fd5b81019080803573ffffffffffffffffffffffffffffffffffffffff169060200190929190505050611f9c565b6040518080602001868152602001806020018573ffffffffffffffffffffffffffffffffffffffff1673ffffffffffffffffffffffffffffffffffffffff16815260200180602001848103845289818151815260200191508051906020019080838360005b8381101561069f578082015181840152602081019050610684565b50505050905090810190601f1680156106cc5780820380516001836020036101000a031916815260200191505b50848103835287818151815260200191508051906020019060200280838360005b838110156107085780820151818401526020810190506106ed565b50505050905001848103825285818151815260200191508051906020019080838360005b8381101561074757808201518184015260208101905061072c565b50505050905090810190601f1680156107745780820380516001836020036101000a031916815260200191505b509850505050505050505060405180910390f35b34801561079457600080fd5b506107d7600480360360208110156107ab57600080fd5b81019080803573ffffffffffffffffffffffffffffffffffffffff1690602001909291905050506122ac565b60405180806020018581526020018060200180602001848103845288818151815260200191508051906020019080838360005b8381101561082557808201518184015260208101905061080a565b50505050905090810190601f1680156108525780820380516001836020036101000a031916815260200191505b50848103835286818151815260200191508051906020019080838360005b8381101561088b578082015181840152602081019050610870565b50505050905090810190601f1680156108b85780820380516001836020036101000a031916815260200191505b50848103825285818151815260200191508051906020019080838360005b838110156108f15780820151818401526020810190506108d6565b50505050905090810190601f16801561091e5780820380516001836020036101000a031916815260200191505b5097505050505050505060405180910390f35b34801561093d57600080fd5b506109806004803603602081101561095457600080fd5b81019080803573ffffffffffffffffffffffffffffffffffffffff16906020019092919050505061259f565b6040518080602001828103825283818151815260200191508051906020019080838360005b838110156109c05780820151818401526020810190506109a5565b50505050905090810190601f1680156109ed5780820380516001836020036101000a031916815260200191505b509250505060405180910390f35b348015610a0757600080fd5b50610a3460048036036020811015610a1e57600080fd5b8101908080359060200190929190505050612683565b604051808273ffffffffffffffffffffffffffffffffffffffff1673ffffffffffffffffffffffffffffffffffffffff16815260200191505060405180910390f35b610ab860048036036020811015610a8c57600080fd5b81019080803573ffffffffffffffffffffffffffffffffffffffff1690602001909291905050506126c1565b005b348015610ac657600080fd5b50610cce60048036036080811015610add57600080fd5b81019080803573ffffffffffffffffffffffffffffffffffffffff16906020019092919080359060200190640100000000811115610b1a57600080fd5b820183602082011115610b2c57600080fd5b80359060200191846001830284011164010000000083111715610b4e57600080fd5b91908080601f016020809104026020016040519081016040528093929190818152602001838380828437600081840152601f19601f82011690508083019250505050505050919291929080359060200190640100000000811115610bb157600080fd5b820183602082011115610bc357600080fd5b80359060200191846001830284011164010000000083111715610be557600080fd5b91908080601f016020809104026020016040519081016040528093929190818152602001838380828437600081840152601f19601f82011690508083019250505050505050919291929080359060200190640100000000811115610c4857600080fd5b820183602082011115610c5a57600080fd5b80359060200191846001830284011164010000000083111715610c7c57600080fd5b91908080601f016020809104026020016040519081016040528093929190818152602001838380828437600081840152601f19601f82011690508083019250505050505050919291929050505061283b565b005b348015610cdc57600080fd5b50610ce5612946565b6040518080602001828103825283818151815260200191508051906020019060200280838360005b83811015610d28578082015181840152602081019050610d0d565b505050509050019250505060405180910390f35b348015610d4857600080fd5b50610fdb600480360360c0811015610d5f57600080fd5b8101908080359060200190640100000000811115610d7c57600080fd5b820183602082011115610d8e57600080fd5b80359060200191846001830284011164010000000083111715610db057600080fd5b91908080601f016020809104026020016040519081016040528093929190818152602001838380828437600081840152601f19601f820116905080830192505050505050509192919290803590602001909291908035906020019092919080359060200190640100000000811115610e2757600080fd5b820183602082011115610e3957600080fd5b80359060200191846001830284011164010000000083111715610e5b57600080fd5b91908080601f016020809104026020016040519081016040528093929190818152602001838380828437600081840152601f19601f82011690508083019250505050505050919291929080359060200190640100000000811115610ebe57600080fd5b820183602082011115610ed057600080fd5b80359060200191846001830284011164010000000083111715610ef257600080fd5b91908080601f016020809104026020016040519081016040528093929190818152602001838380828437600081840152601f19601f82011690508083019250505050505050919291929080359060200190640100000000811115610f5557600080fd5b820183602082011115610f6757600080fd5b80359060200191846001830284011164010000000083111715610f8957600080fd5b91908080601f016020809104026020016040519081016040528093929190818152602001838380828437600081840152601f19601f8201169050808301925050505050505091929192905050506129d4565b6040518080602001828103825283818151815260200191508051906020019080838360005b8381101561101b578082015181840152602081019050611000565b50505050905090810190601f1680156110485780820380516001836020036101000a031916815260200191505b509250505060405180910390f35b34801561106257600080fd5b506110a56004803603602081101561107957600080fd5b81019080803573ffffffffffffffffffffffffffffffffffffffff169060200190929190505050612a27565b6040518080602001828103825283818151815260200191508051906020019060200280838360005b838110156110e85780820151818401526020810190506110cd565b505050509050019250505060405180910390f35b34801561110857600080fd5b50611111612af7565b6040518080602001828103825283818151815260200191508051906020019060200280838360005b83811015611154578082015181840152602081019050611139565b505050509050019250505060405180910390f35b34801561117457600080fd5b50611386600480360360a081101561118b57600080fd5b81019080803590602001906401000000008111156111a857600080fd5b8201836020820111156111ba57600080fd5b803590602001918460018302840111640100000000831117156111dc57600080fd5b91908080601f016020809104026020016040519081016040528093929190818152602001838380828437600081840152601f19601f820116905080830192505050505050509192919290803590602001909291908035906020019064010000000081111561124957600080fd5b82018360208201111561125b57600080fd5b8035906020019184600183028401116401000000008311171561127d57600080fd5b91908080601f016020809104026020016040519081016040528093929190818152602001838380828437600081840152601f19601f820116905080830192505050505050509192919290803590602001906401000000008111156112e057600080fd5b8201836020820111156112f257600080fd5b8035906020019184600183028401116401000000008311171561131457600080fd5b91908080601f016020809104026020016040519081016040528093929190818152602001838380828437600081840152601f19601f820116905080830192505050505050509192919290803573ffffffffffffffffffffffffffffffffffffffff169060200190929190505050612b85565b6040518080602001828103825283818151815260200191508051906020019080838360005b838110156113c65780820151818401526020810190506113ab565b50505050905090810190601f1680156113f35780820380516001836020036101000a031916815260200191505b509250505060405180910390f35b34801561140d57600080fd5b506116b6600480360360c081101561142457600080fd5b810190808035906020019064010000000081111561144157600080fd5b82018360208201111561145357600080fd5b8035906020019184600183028401116401000000008311171561147557600080fd5b91908080601f016020809104026020016040519081016040528093929190818152602001838380828437600081840152601f19601f82011690508083019250505050505050919291929080359060200190929190803590602001906401000000008111156114e257600080fd5b8201836020820111156114f457600080fd5b8035906020019184600183028401116401000000008311171561151657600080fd5b91908080601f016020809104026020016040519081016040528093929190818152602001838380828437600081840152601f19601f8201169050808301925050505050505091929192908035906020019064010000000081111561157957600080fd5b82018360208201111561158b57600080fd5b803590602001918460018302840111640100000000831117156115ad57600080fd5b91908080601f016020809104026020016040519081016040528093929190818152602001838380828437600081840152601f19601f8201169050808301925050505050505091929192908035906020019064010000000081111561161057600080fd5b82018360208201111561162257600080fd5b8035906020019184600183028401116401000000008311171561164457600080fd5b91908080601f016020809104026020016040519081016040528093929190818152602001838380828437600081840152601f19601f820116905080830192505050505050509192919290803573ffffffffffffffffffffffffffffffffffffffff169060200190929190505050612ddb565b6040518080602001828103825283818151815260200191508051906020019080838360005b838110156116f65780820151818401526020810190506116db565b50505050905090810190601f1680156117235780820380516001836020036101000a031916815260200191505b509250505060405180910390f35b60606000600260008473ffffffffffffffffffffffffffffffffffffffff1673ffffffffffffffffffffffffffffffffffffffff1681526020019081526020016000206002019050808054806020026020016040519081016040528092919081815260200182805480156117fa57602002820191906000526020600020905b8160009054906101000a900473ffffffffffffffffffffffffffffffffffffffff1673ffffffffffffffffffffffffffffffffffffffff16815260200190600101908083116117b0575b5050505050915050919050565b611852600260008473ffffffffffffffffffffffffffffffffffffffff1673ffffffffffffffffffffffffffffffffffffffff16815260200190815260200160002060020182613035565b5061189e600160008373ffffffffffffffffffffffffffffffffffffffff1673ffffffffffffffffffffffffffffffffffffffff16815260200190815260200160002060020183613035565b505050565b6008818154811015156118b257fe5b906000526020600020016000915054906101000a900473ffffffffffffffffffffffffffffffffffffffff1681565b6060806060806001600360008773ffffffffffffffffffffffffffffffffffffffff1673ffffffffffffffffffffffffffffffffffffffff1681526020019081526020016000205414151561193557600080fd5b600260008673ffffffffffffffffffffffffffffffffffffffff1673ffffffffffffffffffffffffffffffffffffffff168152602001908152602001600020600001600260008773ffffffffffffffffffffffffffffffffffffffff1673ffffffffffffffffffffffffffffffffffffffff168152602001908152602001600020600301600260008873ffffffffffffffffffffffffffffffffffffffff1673ffffffffffffffffffffffffffffffffffffffff168152602001908152602001600020600501600260008973ffffffffffffffffffffffffffffffffffffffff1673ffffffffffffffffffffffffffffffffffffffff168152602001908152602001600020600401838054600181600116156101000203166002900480601f016020809104026020016040519081016040528092919081815260200182805460018160011615610100020316600290048015611ad25780601f10611aa757610100808354040283529160200191611ad2565b820191906000526020600020905b815481529060010190602001808311611ab557829003601f168201915b50505050509350828054600181600116156101000203166002900480601f016020809104026020016040519081016040528092919081815260200182805460018160011615610100020316600290048015611b6e5780601f10611b4357610100808354040283529160200191611b6e565b820191906000526020600020905b815481529060010190602001808311611b5157829003601f168201915b50505050509250818054600181600116156101000203166002900480601f016020809104026020016040519081016040528092919081815260200182805460018160011615610100020316600290048015611c0a5780601f10611bdf57610100808354040283529160200191611c0a565b820191906000526020600020905b815481529060010190602001808311611bed57829003601f168201915b50505050509150808054600181600116156101000203166002900480601f016020809104026020016040519081016040528092919081815260200182805460018160011615610100020316600290048015611ca65780601f10611c7b57610100808354040283529160200191611ca6565b820191906000526020600020905b815481529060010190602001808311611c8957829003601f168201915b5050505050905093509350935093509193509193565b611cc63382611807565b3373ffffffffffffffffffffffffffffffffffffffff166108fc671bc16d674ec800009081150290604051600060405180830381858888f19350505050158015611d14573d6000803e3d6000fd5b506002600080828254039250508190555050565b600080905060008090505b600160003373ffffffffffffffffffffffffffffffffffffffff1673ffffffffffffffffffffffffffffffffffffffff16815260200190815260200160002060020180549050811015611eb6578473ffffffffffffffffffffffffffffffffffffffff16600160003373ffffffffffffffffffffffffffffffffffffffff1673ffffffffffffffffffffffffffffffffffffffff16815260200190815260200160002060020182815481101515611de657fe5b9060005260206000200160009054906101000a900473ffffffffffffffffffffffffffffffffffffffff1673ffffffffffffffffffffffffffffffffffffffff161415611ea957611e378584613225565b611e418533611807565b3373ffffffffffffffffffffffffffffffffffffffff166108fc671bc16d674ec800009081150290604051600060405180830381858888f19350505050158015611e8f573d6000803e3d6000fd5b506002600080828254039250508190555060019150611eb6565b8080600101915050611d33565b50600015158115151415611ec957600080fd5b600080905060008090505b600260008773ffffffffffffffffffffffffffffffffffffffff1673ffffffffffffffffffffffffffffffffffffffff16815260200190815260200160002060060180549050811015611f945784600260008873ffffffffffffffffffffffffffffffffffffffff1673ffffffffffffffffffffffffffffffffffffffff16815260200190815260200160002060060182815481101515611f7157fe5b90600052602060002001541415611f8757600191505b8080600101915050611ed4565b505050505050565b60606000606060006060600260008773ffffffffffffffffffffffffffffffffffffffff1673ffffffffffffffffffffffffffffffffffffffff168152602001908152602001600020600001600260008873ffffffffffffffffffffffffffffffffffffffff1673ffffffffffffffffffffffffffffffffffffffff16815260200190815260200160002060010154600260008973ffffffffffffffffffffffffffffffffffffffff1673ffffffffffffffffffffffffffffffffffffffff168152602001908152602001600020600601600560008a73ffffffffffffffffffffffffffffffffffffffff1673ffffffffffffffffffffffffffffffffffffffff16815260200190815260200160002060009054906101000a900473ffffffffffffffffffffffffffffffffffffffff16600260008b73ffffffffffffffffffffffffffffffffffffffff1673ffffffffffffffffffffffffffffffffffffffff168152602001908152602001600020600701848054600181600116156101000203166002900480601f0160208091040260200160405190810160405280929190818152602001828054600181600116156101000203166002900480156121a45780601f10612179576101008083540402835291602001916121a4565b820191906000526020600020905b81548152906001019060200180831161218757829003601f168201915b50505050509450828054806020026020016040519081016040528092919081815260200182805480156121f657602002820191906000526020600020905b8154815260200190600101908083116121e2575b50505050509250808054600181600116156101000203166002900480601f0160208091040260200160405190810160405280929190818152602001828054600181600116156101000203166002900480156122925780601f1061226757610100808354040283529160200191612292565b820191906000526020600020905b81548152906001019060200180831161227557829003601f168201915b505050505090509450945094509450945091939590929450565b60606000606080600160008673ffffffffffffffffffffffffffffffffffffffff1673ffffffffffffffffffffffffffffffffffffffff168152602001908152602001600020600001600160008773ffffffffffffffffffffffffffffffffffffffff1673ffffffffffffffffffffffffffffffffffffffff16815260200190815260200160002060010154600160008873ffffffffffffffffffffffffffffffffffffffff1673ffffffffffffffffffffffffffffffffffffffff168152602001908152602001600020600401600160008973ffffffffffffffffffffffffffffffffffffffff1673ffffffffffffffffffffffffffffffffffffffff168152602001908152602001600020600601838054600181600116156101000203166002900480601f0160208091040260200160405190810160405280929190818152602001828054600181600116156101000203166002900480156124515780601f1061242657610100808354040283529160200191612451565b820191906000526020600020905b81548152906001019060200180831161243457829003601f168201915b50505050509350818054600181600116156101000203166002900480601f0160208091040260200160405190810160405280929190818152602001828054600181600116156101000203166002900480156124ed5780601f106124c2576101008083540402835291602001916124ed565b820191906000526020600020905b8154815290600101906020018083116124d057829003601f168201915b50505050509150808054600181600116156101000203166002900480601f0160208091040260200160405190810160405280929190818152602001828054600181600116156101000203166002900480156125895780601f1061255e57610100808354040283529160200191612589565b820191906000526020600020905b81548152906001019060200180831161256c57829003601f168201915b5050505050905093509350935093509193509193565b6060600260008373ffffffffffffffffffffffffffffffffffffffff1673ffffffffffffffffffffffffffffffffffffffff1681526020019081526020016000206007018054600181600116156101000203166002900480601f0160208091040260200160405190810160405280929190818152602001828054600181600116156101000203166002900480156126775780601f1061264c57610100808354040283529160200191612677565b820191906000526020600020905b81548152906001019060200180831161265a57829003601f168201915b50505050509050919050565b60078181548110151561269257fe5b906000526020600020016000915054906101000a900473ffffffffffffffffffffffffffffffffffffffff1681565b671bc16d674ec80000341415156126d757600080fd5b6001600260003373ffffffffffffffffffffffffffffffffffffffff1673ffffffffffffffffffffffffffffffffffffffff1681526020019081526020016000206002018290806001815401808255809150509060018203906000526020600020016000909192909190916101000a81548173ffffffffffffffffffffffffffffffffffffffff021916908373ffffffffffffffffffffffffffffffffffffffff160217905550505060018060008373ffffffffffffffffffffffffffffffffffffffff1673ffffffffffffffffffffffffffffffffffffffff1681526020019081526020016000206002013390806001815401808255809150509060018203906000526020600020016000909192909190916101000a81548173ffffffffffffffffffffffffffffffffffffffff021916908373ffffffffffffffffffffffffffffffffffffffff16021790555050506002600080828254019250508190555050565b82600160008673ffffffffffffffffffffffffffffffffffffffff1673ffffffffffffffffffffffffffffffffffffffff1681526020019081526020016000206000019080519060200190612891929190613280565b5081600160008673ffffffffffffffffffffffffffffffffffffffff1673ffffffffffffffffffffffffffffffffffffffff16815260200190815260200160002060040190805190602001906128e8929190613280565b5080600160008673ffffffffffffffffffffffffffffffffffffffff1673ffffffffffffffffffffffffffffffffffffffff168152602001908152602001600020600501908051906020019061293f929190613280565b5050505050565b606060088054806020026020016040519081016040528092919081815260200182805480156129ca57602002820191906000526020600020905b8160009054906101000a900473ffffffffffffffffffffffffffffffffffffffff1673ffffffffffffffffffffffffffffffffffffffff1681526020019060010190808311612980575b5050505050905090565b6060600033905060008614156129fa576129f2888887878786612ddb565b915050612a1d565b6001861415612a1857612a108888878785612b85565b915050612a1d565b600080fd5b9695505050505050565b6060600160008373ffffffffffffffffffffffffffffffffffffffff1673ffffffffffffffffffffffffffffffffffffffff168152602001908152602001600020600201805480602002602001604051908101604052809291908181526020018280548015612aeb57602002820191906000526020600020905b8160009054906101000a900473ffffffffffffffffffffffffffffffffffffffff1673ffffffffffffffffffffffffffffffffffffffff1681526020019060010190808311612aa1575b50505050509050919050565b60606007805480602002602001604051908101604052809291908181526020018280548015612b7b57602002820191906000526020600020905b8160009054906101000a900473ffffffffffffffffffffffffffffffffffffffff1673ffffffffffffffffffffffffffffffffffffffff1681526020019060010190808311612b31575b5050505050905090565b60606000600460008473ffffffffffffffffffffffffffffffffffffffff1673ffffffffffffffffffffffffffffffffffffffff16815260200190815260200160002054141515612bd557600080fd5b600160088390806001815401808255809150509060018203906000526020600020016000909192909190916101000a81548173ffffffffffffffffffffffffffffffffffffffff021916908373ffffffffffffffffffffffffffffffffffffffff160217905550505085600160008473ffffffffffffffffffffffffffffffffffffffff1673ffffffffffffffffffffffffffffffffffffffff1681526020019081526020016000206000019080519060200190612c94929190613280565b5084600160008473ffffffffffffffffffffffffffffffffffffffff1673ffffffffffffffffffffffffffffffffffffffff1681526020019081526020016000206001018190555083600160008473ffffffffffffffffffffffffffffffffffffffff1673ffffffffffffffffffffffffffffffffffffffff1681526020019081526020016000206004019080519060200190612d32929190613280565b5082600160008473ffffffffffffffffffffffffffffffffffffffff1673ffffffffffffffffffffffffffffffffffffffff1681526020019081526020016000206006019080519060200190612d89929190613280565b506001600460008473ffffffffffffffffffffffffffffffffffffffff1673ffffffffffffffffffffffffffffffffffffffff1681526020019081526020016000208190555085905095945050505050565b60606000600360008473ffffffffffffffffffffffffffffffffffffffff1673ffffffffffffffffffffffffffffffffffffffff16815260200190815260200160002054141515612e2b57600080fd5b600160078390806001815401808255809150509060018203906000526020600020016000909192909190916101000a81548173ffffffffffffffffffffffffffffffffffffffff021916908373ffffffffffffffffffffffffffffffffffffffff1602179055505050612e9c613300565b86816020018181525050878160000181905250838160e00181905250858160800181905250848160a0018190525080600260003373ffffffffffffffffffffffffffffffffffffffff1673ffffffffffffffffffffffffffffffffffffffff1681526020019081526020016000206000820151816000019080519060200190612f26929190613346565b50602082015181600101556040820151816002019080519060200190612f4d9291906133c6565b506060820151816003019080519060200190612f6a929190613346565b506080820151816004019080519060200190612f87929190613346565b5060a0820151816005019080519060200190612fa4929190613346565b5060c0820151816006019080519060200190612fc1929190613450565b5060e0820151816007019080519060200190612fde929190613346565b509050506001600360008573ffffffffffffffffffffffffffffffffffffffff1673ffffffffffffffffffffffffffffffffffffffff16815260200190815260200160002081905550879150509695505050505050565b60008060009050600080905060008090505b85805490508110156130d4578473ffffffffffffffffffffffffffffffffffffffff16868281548110151561307857fe5b9060005260206000200160009054906101000a900473ffffffffffffffffffffffffffffffffffffffff1673ffffffffffffffffffffffffffffffffffffffff1614156130c757600192508091505b8080600101915050613047565b508115156130e157600080fd5b600185805490501415156131cc5784600186805490500381548110151561310457fe5b9060005260206000200160009054906101000a900473ffffffffffffffffffffffffffffffffffffffff16858281548110151561313d57fe5b9060005260206000200160006101000a81548173ffffffffffffffffffffffffffffffffffffffff021916908373ffffffffffffffffffffffffffffffffffffffff16021790555084600186805490500381548110151561319a57fe5b9060005260206000200160006101000a81549073ffffffffffffffffffffffffffffffffffffffff0219169055613208565b84818154811015156131da57fe5b9060005260206000200160006101000a81549073ffffffffffffffffffffffffffffffffffffffff02191690555b8480548091906001900361321c919061349d565b50505092915050565b80600260008473ffffffffffffffffffffffffffffffffffffffff1673ffffffffffffffffffffffffffffffffffffffff168152602001908152602001600020600701908051906020019061327b929190613280565b505050565b828054600181600116156101000203166002900490600052602060002090601f016020900481019282601f106132c157805160ff19168380011785556132ef565b828001600101855582156132ef579182015b828111156132ee5782518255916020019190600101906132d3565b5b5090506132fc91906134c9565b5090565b6101006040519081016040528060608152602001600081526020016060815260200160608152602001606081526020016060815260200160608152602001606081525090565b828054600181600116156101000203166002900490600052602060002090601f016020900481019282601f1061338757805160ff19168380011785556133b5565b828001600101855582156133b5579182015b828111156133b4578251825591602001919060010190613399565b5b5090506133c291906134c9565b5090565b82805482825590600052602060002090810192821561343f579160200282015b8281111561343e5782518260006101000a81548173ffffffffffffffffffffffffffffffffffffffff021916908373ffffffffffffffffffffffffffffffffffffffff160217905550916020019190600101906133e6565b5b50905061344c91906134ee565b5090565b82805482825590600052602060002090810192821561348c579160200282015b8281111561348b578251825591602001919060010190613470565b5b50905061349991906134c9565b5090565b8154818355818111156134c4578183600052602060002091820191016134c391906134c9565b5b505050565b6134eb91905b808211156134e75760008160009055506001016134cf565b5090565b90565b61352e91905b8082111561352a57600081816101000a81549073ffffffffffffffffffffffffffffffffffffffff0219169055506001016134f4565b5090565b9056fea165627a7a723058209fdd6fa380a5903a7d37db3fc1432294b7bde76cd5a6553ac01b5f25693687820029",
  "source": "pragma solidity ^0.5.1;\n\ncontract Agent {\n    \n    struct patient {\n\n        string name;\n        uint age;\n        address[] doctorAccessList;\n        string patient_address;\n        string patient_number;\n        string patient_bloodgroup;\n        uint[] diagnosis;\n        string record;\n    }\n    \n    struct doctor {\n        string name;\n        uint age;\n        address[] patientAccessList;\n        string expertise;\n        string doctor_number;\n        string doctor_address;\n        string doctor_bloodgroup;\n    }\n\n    uint Amount_Credit;\n\n    mapping (address => doctor) doctorInfo;\n    mapping (address => patient) patientInfo;\n    mapping (address => uint) patient_exist;\n    mapping (address => uint) doctor_exist;\n    mapping (address => address) Empty;\n    mapping (address => string) patientRecords;\n\n    address[] public patientList;\n    address[] public doctorList;\n\n\n    function add_patient(string memory _name, uint _age, string memory _num, string memory _bg , string memory _hash, address addr) public returns(string memory)\n    {\n        require(patient_exist[addr] == 0);\n        \n        patientList.push(addr)-1;\n        patient memory p;\n        p.age = _age;\n        p.name = _name;\n        p.record = _hash;\n        p.patient_number = _num;\n        p.patient_bloodgroup = _bg;\n        patientInfo[msg.sender] = p;\n        patient_exist[addr] = 1;\n        return _name;\n    }\n\n    function add_doctor(string memory _name, uint _age, string memory _num, string memory _bg, address addr) public returns(string memory)\n    {\n        require(doctor_exist[addr] == 0);\n        \n        doctorList.push(addr)-1;\n        doctorInfo[addr].name = _name;\n        doctorInfo[addr].age = _age;\n        doctorInfo[addr].doctor_number = _num;\n        doctorInfo[addr].doctor_bloodgroup = _bg;\n        doctor_exist[addr] = 1;\n        return _name;\n    }\n\n    function add_agent(string memory _name, uint _age, uint _designation, string memory _num, string memory _bg, string memory _hash) public returns(string memory)\n    {\n        address addr = msg.sender;\n        \n        if(_designation == 0)\n        {\n            return add_patient(_name, _age, _num, _bg, _hash, addr);\n        }\n       else if (_designation == 1)\n       {\n            return add_doctor(_name, _age, _num, _bg, addr);\n       }\n       else\n       {\n           revert();\n       }\n    }\n\n    function get_doctor(address addr) view public returns (string memory , uint, string memory, string memory)\n    {\n        return (doctorInfo[addr].name, doctorInfo[addr].age, doctorInfo[addr].doctor_number, doctorInfo[addr].doctor_bloodgroup);\n    }\n\n    function get_patient(address addr) view public returns (string memory , uint, uint[] memory , address, string memory )\n    {\n        return (patientInfo[addr].name, patientInfo[addr].age, patientInfo[addr].diagnosis, Empty[addr], patientInfo[addr].record);\n    }\n\n    function permit_access(address addr) payable public\n    {\n        require(msg.value == 2 ether);\n        \n        patientInfo[msg.sender].doctorAccessList.push(addr)-1;   \n        doctorInfo[addr].patientAccessList.push(msg.sender)-1;\n        Amount_Credit += 2;\n    }\n\n\n    function daignosis_submit_action(address paddr, uint _diagnosis, string memory  _hash) public\n    {\n        bool flag = false;\n        for(uint i = 0;i<doctorInfo[msg.sender].patientAccessList.length;i++)\n        {\n            if(doctorInfo[msg.sender].patientAccessList[i]==paddr)\n            {\n                set_hash(paddr, _hash);\n                remove_patient(paddr, msg.sender);\n                msg.sender.transfer(2 ether);\n                Amount_Credit -= 2;\n                flag = true;\n                break;\n            }\n            \n        }\n        if(flag==false)\n        {\n            revert();\n        }\n\n        bool DiagnosisFound = false;\n        for(uint j = 0; j < patientInfo[paddr].diagnosis.length;j++)\n        {\n            if(patientInfo[paddr].diagnosis[j] == _diagnosis)DiagnosisFound = true;\n        }\n    }\n\n\n    function remove_element_in_array(address[] storage Array, address addr) internal returns(uint)\n    {\n        bool check = false;\n        uint del_index = 0;\n        for(uint i = 0; i<Array.length; i++)\n        {\n            if(Array[i] == addr)\n            {\n                check = true;\n                del_index = i;\n            }\n        }\n        \n        if(!check) \n        {\n            revert();\n        }\n        else\n        {\n            if(Array.length != 1)\n            {\n                Array[del_index] = Array[Array.length - 1];\n                delete Array[Array.length - 1];\n            }\n            else\n            {\n                delete Array[del_index];\n            }\n            Array.length--;\n        }\n    }\n\n\n    function get_accessed_patientlist_for_doctor(address addr) public view returns (address[] memory )\n    {\n        return doctorInfo[addr].patientAccessList;\n    }\n\n    function get_accessed_doctorlist_for_patient(address addr) public view returns (address[] memory )\n    { \n        address[] storage doctoraddr = patientInfo[addr].doctorAccessList;\n        return doctoraddr;\n    }\n\n    function getBasicPatientInfo (address patientId) public view returns(string memory patientName, string memory patientAddress, string memory patientBloodgroup, \n               string memory patientPhoneNo)  \n    {\n        require(patient_exist[patientId]==1);\n        return(patientInfo[patientId].name, patientInfo[patientId].patient_address, patientInfo[patientId].patient_bloodgroup, \n               patientInfo[patientId].patient_number);\n       \n    }\n\n    function remove_patient(address paddr, address daddr) public \n    {\n        remove_element_in_array(patientInfo[paddr].doctorAccessList, daddr);\n        remove_element_in_array(doctorInfo[daddr].patientAccessList, paddr);\n    }\n\n    function revoke_access(address daddr) public payable\n    {\n        remove_patient(msg.sender,daddr);\n        msg.sender.transfer(2 ether);\n        Amount_Credit -= 2;\n    }\n    \n    function get_hash(address paddr) public view returns(string memory)\n    {\n        return patientInfo[paddr].record;\n    }\n\n    function updateDoctorDetails(address doc_id,string memory _name,string memory _phoneNumber,string memory _address) public {\n        doctorInfo[doc_id].name = _name; \n        doctorInfo[doc_id].doctor_number = _phoneNumber; \n        doctorInfo[doc_id].doctor_address = _address; \n    }\n\n    function set_hash(address paddr, string memory _hash) internal \n    {\n        patientInfo[paddr].record = _hash;\n    }\n\n    function get_doctor_list() public view returns(address[] memory )\n    {\n        return doctorList;\n    }\n\n\n    function get_patient_list() public view returns(address[] memory )\n    {\n        return patientList;\n    }\n\n}\n\n",
  "sourcePath": "C:\\Users\\CHHAVI KIRTANI\\Desktop\\New folder\\SwasthyaChain-master\\SwasthyaChain-master\\app\\contracts\\Agent.sol",
  "compiler": {
    "name": "solc",
    "version": "0.5.1+commit.c8a2cb62.Emscripten.clang"
  },
  "schemaVersion": "3.4.3",
  "updatedAt": "2021-12-14T16:44:11.759Z",
  "networkType": "ethereum",
  "devdoc": {
    "methods": {}
  },
  "userdoc": {
    "methods": {}
  }
}